:020000040000FA
:06000000FDEF01F012000B
:0A0006000100260400006000000065
:040010001B000000D1
:0C001400D9CFE6FFE1CFD9FF030EE126B3
:10002000300EDF6E010EDB6A020EDB6A926A936AA3
:10003000946A190EE66E440EE66EEF0EE66E2CEC38
:1000400001F0E552E552E5520C0EE66EE66A2C0E22
:10005000E66EE7EC00F0E552E552E5529EAA21D0AB
:1000600089EC01F0DF6E300EDF5C04E1010EDB6A2B
:10007000020EDB6A310EDF5C05E1010EF36EDB6E12
:10008000020EDB6A320EDF5C02E1020E4AD8330E4A
:10009000DF5C02E1030E45D8340EDF5C02E1040EA2
:1000A00040D88A9A8A8A0A0EE66EA8EC01F0E552D8
:1000B000C70E31D80BEC02F00009FCE1C4280001A6
:1000C000606FC328616FCF0E26D80BEC02F00009D9
:1000D000FCE1C4280001626FC328636FD70E1BD8F0
:1000E0000BEC02F00009FCE1C4280001646FC32896
:1000F000656FDF0E10D80BEC02F00009FCE1C4289C
:100100000001666FC328676F600EE66E000EE66E34
:1001100063EC01F0A1D7E66ED6EC01F0E55210EFEA
:1001200002F0F36E010EF3CFDBFF020EDB6A12006A
:10013000060EF66E000EF76E000EF86E0001090056
:10014000F550806F0900F550816F03E1806701D0A1
:100150003DD00900F5507B6F0900F5507C6F090018
:10016000F5507D6F09000900F550E96E0900F55062
:10017000EA6E090009000900F5507E6F0900F5508C
:100180007F6F09000900F6CF82F0F7CF83F0F8CF38
:1001900084F07BC0F6FF7CC0F7FF7DC0F8FF000154
:1001A0007E5302E17F5307E00900F550EE6E7E07B3
:1001B000F8E27F07F9D782C0F6FF83C0F7FF84C05B
:0E01C000F8FF00018007000E815BBFD7120020
:0201CE00D9CF87
:1001D000E6FFDACFE6FFE1CFD9FFE2CFDAFFAC6A84
:1001E000AB6AFD0EDBB0AC88DBA202D0AC8CAB8C72
:1001F000DBB4AC8EDBA602D0AB8801D0AB8ADBB817
:10020000AC849E98DBBAAB86DBAC02D09D8A01D071
:100210009D9A9E9ADBAE02D09D8801D09D98FB0EE0
:10022000DB50AF6EFB0EFC0EDBCF03F003C002F021
:10023000036A0250B06EAC8AAB8E949C948EAC5024
:10024000100B04E0AC50800B01E1948CE552E5CF3B
:08025000DAFFE7CFD9FF12002D
:08025800D9CFE6FFDACFE6FF83
:10026000E1CFD9FFE2CFDAFFC26AC06AFC0EDB4001
:100270007F0B3C0BC26EFC0EDB38F00B300B026EBA
:10028000FB0EDB500F0B0210C16EFD0EDB50040D98
:10029000F350380B036EFD0EDB380F0B070B026EAD
:1002A000FD0EDB50800B02100310C06EFC0EDBAEA7
:1002B00003D09E9C9D8CF28CC280E552E5CFDAFF84
:0602C000E7CFD9FF120098
:0A02C600D9CFE6FFDACFE6FFE1CF63
:1002D000D9FFE2CFDAFFACA2FED7FC0EDBCFE9FFFD
:1002E000FD0EDBCFEAFFEF50E66EBFEC01F0E5520A
:1002F000FC0EDBCFE9FFDB2AFD0EDBCFEAFF01E3DB
:10030000DB2AEF50E8E1E552E5CFDAFFE7CFD9FF8E
:020310001200D9
:0E031200D9CFE6FFDACFE6FFE1CFD9FFE2CF89
:10032000DAFFE652F20E00018517ABAC03D08591DF
:10033000ABB08581ABB48585ABB28587AE50DF6E3F
:10034000DF50E552E552E5CFDAFFE7CFD9FF1200E3
:10035000FF0EE350056EEF0E01D0F30EE76EE72EB1
:10036000AFEF01F00C0E046EE76AE72EB5EF01F077
:0E037000042EB4EF01F0052EADEF01F01200E7
:02037E00D9CFD5
:10038000E6FFDACFE6FFE1CFD9FFE2CFDAFFACAC90
:1003900004D0AC90000185B3AC80FD0EDB50AD6E97
:0C03A000E552E5CFDAFFE7CFD9FF1200ED
:0403AC00D9CFE6FFC0
:1003B000DACFE6FFE1CFD9FFE2CFDAFFC30EC214F6
:1003C000026EFD0EDB407F0B3C0B0210C26EE5524D
:0A03D000E5CFDAFFE7CFD9FF1200F6
:0603DA00000EF36E00EEC0
:1003E00000F0080E01D81200EA6002D0EE6AFCD7D5
:0A03F000F350E9601200EE6AFCD73A
:0603FA0013EE00F023EEFB
:1004000000F0F86A019C98EC00F012EC02F00AECA3
:0604100000F0FBD7120012
:0A041600C250020B01E0010E1200BB
:04042000C282120082
:020424001200C4
:0A0426000001020304050607007739
:100430006173656461616161612121212121212153
:0104400000BB
:020000040030CA
:0100000024DB
:010001000CF2
:0100020030CD
:010003001FDD
:010005008179
:010006008079
:010008000FE8
:01000900C036
:01000A000FE6
:01000B00E014
:01000C000FE4
:01000D0040B2
:00000001FF
