:020000040000FA
:06000000E6EF01F0120022
:0A0006000100F80300006000000094
:040010001D000000CF
:0C001400D9CFE6FFE1CFD9FF030EE126B3
:10002000300EDF6E010EDB6A020EDB6A926A936AA3
:10003000946A190EE66E440EE66EEF0EE66E5AEC0A
:1000400001F0E552E552E5520C0EE66EE66A2C0E22
:10005000E66E15EC01F0E552E552E5528A7A140E8F
:10006000E66E91EC01F0E552C70EE66EBFEC01F0D2
:10007000E552F9EC01F0F4EC01F00009FCE1100E9E
:10008000C4240001606FC328616FCF0EE66EBFEC21
:1000900001F0E552F9EC01F0F4EC01F00009FCE1AB
:1000A000200EC4240001626FC328636FD70EE66E72
:1000B000BFEC01F0E552F9EC01F0F4EC01F00009BD
:1000C000FCE1400EC4240001646FC328656FDF0E9D
:1000D000E66EBFEC01F0E552F9EC01F0F4EC01F052
:1000E0000009FCE1800EC4240001666FC328676F1D
:1000F00060C0E6FFA8EC01F0E552ACA2FED761C0FB
:10010000E6FFA8EC01F0E552ACA2FED762C0E6FF24
:10011000A8EC01F0E552ACA2FED763C0E6FFA8EC64
:1001200001F0E552ACA2FED764C0E6FFA8EC01F0F6
:10013000E552ACA2FED765C0E6FFA8EC01F0E5529F
:10014000ACA2FED766C0E6FFA8EC01F0E552ACA277
:10015000FED767C0E6FFA8EC01F0E552ACA2FED7DF
:1001600068C0E6FFA8EC01F0E552ACA2FED769C07A
:10017000E6FFA8EC01F0E552ACA2FED76AC0E6FFAC
:0C018000A8EC01F0E552ACB269D7FDD745
:04018C00060EF66EF7
:10019000000EF76E000EF86E00010900F550826F38
:1001A0000900F550836F03E1826701D03DD009005B
:1001B000F5507D6F0900F5507E6F0900F5507F6F97
:1001C00009000900F550E96E0900F550EA6E0900D2
:1001D00009000900F550806F0900F550816F090092
:1001E0000900F6CF84F0F7CF85F0F8CF86F07DC018
:1001F000F6FF7EC0F7FF7FC0F8FF0001805302E1E9
:10020000815307E00900F550EE6E8007F8E28107A0
:10021000F9D784C0F6FF85C0F7FF86C0F8FF00015C
:0A0220008207000E835BBFD71200B7
:06022A00D9CFE6FFDACF98
:10023000E6FFE1CFD9FFE2CFDAFFAC6AAB6AFD0E91
:10024000DBB0AC88DBA202D0AC8CAB8CDBB4AC8E68
:10025000DBA602D0AB8801D0AB8ADBB8AC849E9819
:10026000DBBAAB86DBAC02D09D8A01D09D9A9E9A08
:10027000DBAE02D09D8801D09D98FB0EDB50AF6EA7
:10028000FB0EFC0EDBCF03F003C002F0036A02504A
:10029000B06EAC8AAB8E949C948EAC50100B04E084
:1002A000AC50800B01E1948CE552E5CFDAFFE7CF4B
:0402B000D9FF120060
:0C02B400D9CFE6FFDACFE6FFE1CFD9FF9B
:1002C000E2CFDAFFC26AC06AFC0EDB407F0B3C0B58
:1002D000C26EFC0EDB38F00B300B026EFB0EDB50F7
:1002E0000F0B0210C16EFD0EDB50040DF350380BE6
:1002F000036EFD0EDB380F0B070B026EFD0EDB509D
:10030000800B02100310C06EFC0EDBAE03D09E9C6F
:100310009D8CF28CC280E552E5CFDAFFE7CFD9FFA2
:020320001200C9
:0E032200FF0EE350056EEF0E01D0F30EE76EF6
:10033000E72E98EF01F00C0E046EE76AE72E9EEFB1
:1003400001F0042E9DEF01F0052E96EF01F0120052
:10035000D9CFE6FFDACFE6FFE1CFD9FFE2CFDAFF70
:10036000ACAC04D0AC90000187B3AC80FD0EDB5088
:0E037000AD6EE552E5CFDAFFE7CFD9FF120000
:02037E00D9CFD5
:10038000E6FFDACFE6FFE1CFD9FFE2CFDAFFC30E17
:10039000C214026EFD0EDB407F0B3C0B0210C26EDE
:0C03A000E552E5CFDAFFE7CFD9FF1200ED
:0403AC00000EF36EDE
:1003B00000EE00F0080E01D81200EA6002D0EE6AEA
:0C03C000FCD7F350E9601200EE6AFCD795
:0403CC0013EE00F03C
:1003D00023EE00F0F86A019CC6EC00F0FBEC01F0A3
:0803E0000AEC00F0FBD712004B
:0803E800C250020B01E0010EFE
:0203F0001200F9
:0403F200C2821200B1
:0203F6001200F3
:0803F800746F7006060606068C
:10040000060606776173656461616161612121217E
:05041000212121210063
:020000040030CA
:0100000024DB
:010001000CF2
:0100020030CD
:010003001FDD
:010005008179
:010006008079
:010008000FE8
:01000900C036
:01000A000FE6
:01000B00E014
:01000C000FE4
:01000D0040B2
:00000001FF
