:020000040000FA
:06000000DFEF01F0120029
:0A0006000100EA03000060000000A2
:0400100015000000D7
:0C001400D9CFE6FFE1CFD9FF030EE126B3
:10002000300EDF6E010EDB6A020EDB6A926A936AA3
:10003000946A190EE66E440EE66EEF0EE66E0EEC56
:1000400001F0E552E552E5520C0EE66EE66A2C0E22
:10005000E66EC9EC00F0E552E552E5529EAA21D0C9
:100060006BEC01F0DF6E300EDF5C04E1010EDB6A49
:10007000020EDB6A310EDF5C05E1010EF36EDB6E12
:10008000020EDB6A320EDF5C02E1020E2CD8330E68
:10009000DF5C02E1030E27D8340EDF5C02E1040EC0
:1000A00022D88A9AC80EE66E8AEC01F0E5528A8A56
:1000B000C80EE66E8AEC01F0E552CF0EE66EB8ECA3
:1000C00001F0E552F2EC01F0EDEC01F00009FCE189
:1000D000C4CF60F0C3CF61F0600EE66E000EE66E36
:1000E00045EC01F0B9D7F36E010EF3CFDBFF020E42
:0400F000DB6A1200B5
:0C00F400060EF66E000EF76E000EF86EA1
:1001000000010900F5507A6F0900F5507B6F03E19B
:100110007A6701D03DD00900F550756F0900F550A0
:10012000766F0900F550776F09000900F550E96E08
:100130000900F550EA6E090009000900F550786FD2
:100140000900F550796F09000900F6CF7CF0F7CF70
:100150007DF0F8CF7EF075C0F6FF76C0F7FF77C070
:10016000F8FF0001785302E1795307E00900F550E8
:10017000EE6E7807F8E27907F9D77CC0F6FF7DC00C
:10018000F7FF7EC0F8FF00017A07000E7B5BBFD748
:0201900012005B
:0E019200D9CFE6FFDACFE6FFE1CFD9FFE2CF0B
:1001A000DAFFAC6AAB6AFD0EDBB0AC88DBA202D032
:1001B000AC8CAB8CDBB4AC8EDBA602D0AB8801D0B0
:1001C000AB8ADBB8AC849E98DBBAAB86DBAC02D0E2
:1001D0009D8A01D09D9A9E9ADBAE02D09D8801D067
:1001E0009D98FB0EDB50AF6EFB0EFC0EDBCF03F0D9
:1001F00003C002F0036A0250B06EAC8AAB8E949CCE
:10020000948EAC50100B04E0AC50800B01E1948C48
:0C021000E552E5CFDAFFE7CFD9FF12007E
:04021C00D9CFE6FF51
:10022000DACFE6FFE1CFD9FFE2CFDAFFC26AC06AD8
:10023000FC0EDB407F0B3C0BC26EFC0EDB38F00B80
:10024000300B026EFB0EDB500F0B0210C16EFD0E69
:10025000DB50040DF350380B036EFD0EDB380F0B33
:10026000070B026EFD0EDB50800B02100310C06EF8
:10027000FC0EDBAE03D09E9C9D8CF28CC280E552BE
:0A028000E5CFDAFFE7CFD9FF120047
:06028A00D9CFE6FFDACF38
:10029000E6FFE1CFD9FFE2CFDAFFACA2FED7FC0E3A
:1002A000DBCFE9FFFD0EDBCFEAFFEF50E66EA1ECFE
:1002B00001F0E552FC0EDBCFE9FFDB2AFD0EDBCFC0
:1002C000EAFF01E3DB2AEF50E8E1E552E5CFDAFF90
:0602D000E7CFD9FF120088
:0A02D600D9CFE6FFDACFE6FFE1CF53
:1002E000D9FFE2CFDAFFE652F20E00017F17ABAC86
:1002F00003D07F91ABB07F81ABB47F85ABB27F87FA
:10030000AE50DF6EDF50E552E552E5CFDAFFE7CFC2
:04031000D9FF1200FF
:0C031400FF0EE350056EEF0E01D0F30E5B
:10032000E76EE72E91EF01F00C0E046EE76AE72E00
:1003300097EF01F0042E96EF01F0052E8FEF01F0FC
:020340001200A9
:0E034200D9CFE6FFDACFE6FFE1CFD9FFE2CF59
:10035000DAFFACAC04D0AC9000017FB3AC80FD0EF2
:10036000DB50AD6EE552E5CFDAFFE7CFD9FF1200E3
:10037000D9CFE6FFDACFE6FFE1CFD9FFE2CFDAFF50
:10038000C30EC214026EFD0EDB407F0B3C0B02104D
:0E039000C26EE552E5CFDAFFE7CFD9FF1200CB
:02039E00000E4F
:1003A000F36E00EE00F0080E01D81200EA6002D0F1
:0E03B000EE6AFCD7F350E9601200EE6AFCD74B
:0203BE0013EE3C
:1003C00000F023EE00F0F86A019C7AEC00F0F4EC07
:0A03D00001F00AEC00F0FBD7120068
:0603DA00C250020B01E01D
:0403E000010E1200F8
:0403E400C2821200BF
:0203E800120001
:0603EA00000000776173C2
:0F03F00065646161616161212121212121210069
:020000040030CA
:0100000024DB
:010001000CF2
:0100020030CD
:010003001FDD
:010005008179
:010006008079
:010008000FE8
:01000900C036
:01000A000FE6
:01000B00E014
:01000C000FE4
:01000D0040B2
:00000001FF
